{
  "_format": "hh-sol-artifact-1",
  "contractName": "Agent",
  "sourceName": "contracts/Agent.sol",
  "abi": [
    {
      "inputs": [
        {
          "internalType": "address",
          "name": "creator",
          "type": "address"
        },
        {
          "internalType": "address",
          "name": "initialOracleAddress",
          "type": "address"
        },
        {
          "internalType": "string",
          "name": "systemPrompt",
          "type": "string"
        },
        {
          "internalType": "string",
          "name": "tools",
          "type": "string"
        },
        {
          "internalType": "string",
          "name": "agentName",
          "type": "string"
        },
        {
          "internalType": "string",
          "name": "agentDescription",
          "type": "string"
        }
      ],
      "stateMutability": "nonpayable",
      "type": "constructor"
    },
    {
      "anonymous": false,
      "inputs": [
        {
          "indexed": true,
          "internalType": "address",
          "name": "owner",
          "type": "address"
        },
        {
          "indexed": true,
          "internalType": "uint256",
          "name": "runId",
          "type": "uint256"
        }
      ],
      "name": "AgentRunCreated",
      "type": "event"
    },
    {
      "anonymous": false,
      "inputs": [
        {
          "indexed": true,
          "internalType": "address",
          "name": "newOracleAddress",
          "type": "address"
        }
      ],
      "name": "OracleAddressUpdated",
      "type": "event"
    },
    {
      "inputs": [
        {
          "internalType": "uint256",
          "name": "",
          "type": "uint256"
        }
      ],
      "name": "agentRuns",
      "outputs": [
        {
          "internalType": "address",
          "name": "owner",
          "type": "address"
        },
        {
          "internalType": "uint256",
          "name": "responsesCount",
          "type": "uint256"
        },
        {
          "internalType": "uint8",
          "name": "max_iterations",
          "type": "uint8"
        },
        {
          "internalType": "bool",
          "name": "is_finished",
          "type": "bool"
        }
      ],
      "stateMutability": "view",
      "type": "function"
    },
    {
      "inputs": [],
      "name": "description",
      "outputs": [
        {
          "internalType": "string",
          "name": "",
          "type": "string"
        }
      ],
      "stateMutability": "view",
      "type": "function"
    },
    {
      "inputs": [
        {
          "internalType": "uint256",
          "name": "agentId",
          "type": "uint256"
        }
      ],
      "name": "getMessageHistory",
      "outputs": [
        {
          "components": [
            {
              "internalType": "string",
              "name": "role",
              "type": "string"
            },
            {
              "components": [
                {
                  "internalType": "string",
                  "name": "contentType",
                  "type": "string"
                },
                {
                  "internalType": "string",
                  "name": "value",
                  "type": "string"
                }
              ],
              "internalType": "struct IOracle.Content[]",
              "name": "content",
              "type": "tuple[]"
            }
          ],
          "internalType": "struct IOracle.Message[]",
          "name": "",
          "type": "tuple[]"
        }
      ],
      "stateMutability": "view",
      "type": "function"
    },
    {
      "inputs": [
        {
          "internalType": "uint256",
          "name": "runId",
          "type": "uint256"
        }
      ],
      "name": "isRunFinished",
      "outputs": [
        {
          "internalType": "bool",
          "name": "",
          "type": "bool"
        }
      ],
      "stateMutability": "view",
      "type": "function"
    },
    {
      "inputs": [],
      "name": "name",
      "outputs": [
        {
          "internalType": "string",
          "name": "",
          "type": "string"
        }
      ],
      "stateMutability": "view",
      "type": "function"
    },
    {
      "inputs": [
        {
          "internalType": "uint256",
          "name": "runId",
          "type": "uint256"
        },
        {
          "internalType": "string",
          "name": "response",
          "type": "string"
        },
        {
          "internalType": "string",
          "name": "errorMessage",
          "type": "string"
        }
      ],
      "name": "onOracleFunctionResponse",
      "outputs": [],
      "stateMutability": "nonpayable",
      "type": "function"
    },
    {
      "inputs": [
        {
          "internalType": "uint256",
          "name": "runId",
          "type": "uint256"
        },
        {
          "components": [
            {
              "internalType": "string",
              "name": "id",
              "type": "string"
            },
            {
              "internalType": "string",
              "name": "content",
              "type": "string"
            },
            {
              "internalType": "string",
              "name": "functionName",
              "type": "string"
            },
            {
              "internalType": "string",
              "name": "functionArguments",
              "type": "string"
            },
            {
              "internalType": "uint64",
              "name": "created",
              "type": "uint64"
            },
            {
              "internalType": "string",
              "name": "model",
              "type": "string"
            },
            {
              "internalType": "string",
              "name": "systemFingerprint",
              "type": "string"
            },
            {
              "internalType": "string",
              "name": "object",
              "type": "string"
            },
            {
              "internalType": "uint32",
              "name": "completionTokens",
              "type": "uint32"
            },
            {
              "internalType": "uint32",
              "name": "promptTokens",
              "type": "uint32"
            },
            {
              "internalType": "uint32",
              "name": "totalTokens",
              "type": "uint32"
            }
          ],
          "internalType": "struct IOracle.OpenAiResponse",
          "name": "response",
          "type": "tuple"
        },
        {
          "internalType": "string",
          "name": "errorMessage",
          "type": "string"
        }
      ],
      "name": "onOracleOpenAiLlmResponse",
      "outputs": [],
      "stateMutability": "nonpayable",
      "type": "function"
    },
    {
      "inputs": [],
      "name": "oracleAddress",
      "outputs": [
        {
          "internalType": "address",
          "name": "",
          "type": "address"
        }
      ],
      "stateMutability": "view",
      "type": "function"
    },
    {
      "inputs": [],
      "name": "prompt",
      "outputs": [
        {
          "internalType": "string",
          "name": "",
          "type": "string"
        }
      ],
      "stateMutability": "view",
      "type": "function"
    },
    {
      "inputs": [
        {
          "internalType": "string",
          "name": "query",
          "type": "string"
        },
        {
          "internalType": "uint8",
          "name": "max_iterations",
          "type": "uint8"
        }
      ],
      "name": "runAgent",
      "outputs": [
        {
          "internalType": "uint256",
          "name": "",
          "type": "uint256"
        }
      ],
      "stateMutability": "nonpayable",
      "type": "function"
    },
    {
      "inputs": [
        {
          "internalType": "address",
          "name": "newOracleAddress",
          "type": "address"
        }
      ],
      "name": "setOracleAddress",
      "outputs": [],
      "stateMutability": "nonpayable",
      "type": "function"
    }
  ],
  "bytecode": "0x60406080815234620010385762002c6f90813803806200001f816200107d565b93843982019160c08184031262001038576200003b81620010a3565b916200004a60208301620010a3565b828201519093906001600160401b0381116200103857856200006e918501620010b8565b60608401519091906001600160401b03811162001038578662000093918601620010b8565b60808501519094906001600160401b038111620010385787620000b8918301620010b8565b60a08201519097906001600160401b0381116200103857620000db9201620010b8565b600580546001600160a01b039384166001600160a01b031991821617909155600680549790931696169590951790558051906001600160401b038211620007cd5760005490600182811c921680156200102d575b6020831014620007ac5781601f84931162000fca575b50602090601f831160011462000f525760009262000f46575b50508160011b916000199060031b1c1916176000555b83516001600160401b038111620007cd57600154600181811c9116801562000f3b575b6020821014620007ac57601f811162000ed1575b50602094601f821160011462000e645794819293949560009262000e58575b50508160011b916000199060031b1c1916176001555b82516001600160401b038111620007cd57600254600181811c9116801562000e4d575b6020821014620007ac57601f811162000df4575b506020601f821160011462000d7b578192939460009262000d6f575b50508160011b916000199060031b1c1916176002555b8051916101a083016001600160401b03811184821017620007cd578252620002706200103d565b601381527f6770742d342d747572626f2d70726576696577000000000000000000000000006020820152835260156020840152620002ad6200105d565b60008152828401526103e8606084015260156080840152620002ce6200103d565b600f81526e7b2274797065223a2274657874227d60881b602082015260a0840152600060c0840152620003006200105d565b6000815260e0840152600a6101008401526065610120840152610140830152620003296200103d565b60048152636175746f60e01b60208201526101608301526200034a6200105d565b60008152610180830152815180519092906001600160401b038111620007cd57600754600181811c9116801562000d64575b6020821014620007ac57601f811162000cfe575b506020601f821160011462000c8f578192939460009262000c83575b50508160011b916000199060031b1c1916176007555b602081015160ff19600854169060ff16176008558181015191825160018060401b038111620007cd57600954600181811c9116801562000c78575b6020821014620007ac57601f811162000c12575b506020601f821160011462000ba3578192939460009262000b97575b50508160011b916000199060031b1c1916176009555b63ffffffff606083015116600a5490608084015160201b64ff00000000169164ffffffffff19161717600a5560a082015191825160018060401b038111620007cd57600b54600181811c9116801562000b8c575b6020821014620007ac57601f811162000b26575b506020601f821160011462000ab7578192939460009262000aab575b50508160011b916000199060031b1c191617600b555b60c0810151600c5560e081015180519092906001600160401b038111620007cd57600d54600181811c9116801562000aa0575b6020821014620007ac57601f811162000a36575b506020601f8211600114620009c75781929394600092620009bb575b50508160011b916000199060031b1c191617600d555b610100820151600e55610120820151600f5561014082015180519092906001600160401b038111620007cd57601054600181811c91168015620009b0575b6020821014620007ac57601f811162000957575b506020601f8211600114620008de5781929394600092620008d2575b50508160011b916000199060031b1c1916176010555b6101608101518051906001600160401b038211620007cd57601154600181811c91168015620008c7575b6020821014620007ac57601f81116200086e575b50602090601f8311600114620007ef5761018093929160009183620007e3575b50508160011b916000199060031b1c1916176011555b015180519091906001600160401b038111620007cd57601254600181811c91168015620007c2575b6020821014620007ac57601f811162000742575b50602092601f8211600114620006d75792819293600092620006cb575b50508160011b916000199060031b1c1916176012555b51611ac490816200112b8239f35b015190503880620006a7565b601f19821693601260005260206000209160005b8681106200072957508360019596106200070f575b505050811b01601255620006bd565b015160001960f88460031b161c1916905538808062000700565b91926020600181928685015181550194019201620006eb565b60126000527fbb8a6a4669ba250d26cd7a459eca9d215f8307e33aebe50379bc5a3617ec3444601f830160051c81019160208410620007a1575b601f0160051c01905b8181106200079457506200068a565b6000815560010162000785565b90915081906200077c565b634e487b7160e01b600052602260045260246000fd5b90607f169062000676565b634e487b7160e01b600052604160045260246000fd5b01519050388062000638565b6011600090815260008051602062002c0f833981519152929190601f198516905b818110620008555750916001939185610180979694106200083b575b505050811b016011556200064e565b015160001960f88460031b161c191690553880806200082c565b9293602060018192878601518155019501930162000810565b601160005260008051602062002c0f833981519152601f840160051c81019160208510620008bc575b601f0160051c01905b818110620008af575062000618565b60008155600101620008a0565b909150819062000897565b90607f169062000604565b015190503880620005c4565b6010600090815260008051602062002c4f8339815191529190601f198416905b8181106200093e5750958360019596971062000924575b505050811b01601055620005da565b015160001960f88460031b161c1916905538808062000915565b9192602060018192868b015181550194019201620008fe565b601060005260008051602062002c4f833981519152601f830160051c81019160208410620009a5575b601f0160051c01905b818110620009985750620005a8565b6000815560010162000989565b909150819062000980565b90607f169062000594565b01519050388062000540565b600d60005260206000209060005b601f198416811062000a1d5750600193949583601f1981161062000a03575b505050811b01600d5562000556565b015160001960f88460031b161c19169055388080620009f4565b9091602060018192858a015181550193019101620009d5565b600d6000527fd7b6990105719101dabeb77144f2a3385c8033acd3af97e9423a695e81ad1eb5601f830160051c8101916020841062000a95575b601f0160051c01905b81811062000a88575062000524565b6000815560010162000a79565b909150819062000a70565b90607f169062000510565b015190503880620004c7565b600b60005260206000209060005b601f198416811062000b0d5750600193949583601f1981161062000af3575b505050811b01600b55620004dd565b015160001960f88460031b161c1916905538808062000ae4565b9091602060018192858a01518155019301910162000ac5565b600b6000527f0175b7a638427703f0dbe7bb9bbf987a2551717b34e79f33b5b1008d1fa01db9601f830160051c81016020841062000b84575b601f830160051c8201811062000b77575050620004ab565b6000815560010162000b5f565b508062000b5f565b90607f169062000497565b0151905038806200042d565b600960005260206000209060005b601f198416811062000bf95750600193949583601f1981161062000bdf575b505050811b0160095562000443565b015160001960f88460031b161c1916905538808062000bd0565b9091602060018192858a01518155019301910162000bb1565b60096000527f6e1540171b6c0c960b71a7020d9f60077f6af931a8bbf590da0223dacf75c7af601f830160051c81016020841062000c70575b601f830160051c8201811062000c6357505062000411565b6000815560010162000c4b565b508062000c4b565b90607f1690620003fd565b015190503880620003ac565b600760005260206000209060005b601f198416811062000ce55750600193949583601f1981161062000ccb575b505050811b01600755620003c2565b015160001960f88460031b161c1916905538808062000cbc565b9091602060018192858a01518155019301910162000c9d565b60076000527fa66cc928b5edb82af9bd49922954155ab7b0942694bea4ce44661d9a8736c688601f830160051c81016020841062000d5c575b601f830160051c8201811062000d4f57505062000390565b6000815560010162000d37565b508062000d37565b90607f16906200037c565b01519050388062000233565b6002600090815260008051602062002bef8339815191529190601f198416905b81811062000ddb5750958360019596971062000dc1575b505050811b0160025562000249565b015160001960f88460031b161c1916905538808062000db2565b9192602060018192868b01518155019401920162000d9b565b600260005260008051602062002bef833981519152601f830160051c8101916020841062000e42575b601f0160051c01905b81811062000e35575062000217565b6000815560010162000e26565b909150819062000e1d565b90607f169062000203565b015190503880620001ca565b601f19821695600160005260206000209160005b88811062000eb85750836001959697981062000e9e575b505050811b01600155620001e0565b015160001960f88460031b161c1916905538808062000e8f565b9192602060018192868501518155019401920162000e78565b60016000527fb10e2d527612073b26eecdfd717e6a320cf44b4afac2b0732d9fcbe2b7fa0cf6601f830160051c8101916020841062000f30575b601f0160051c01905b81811062000f235750620001ab565b6000815560010162000f14565b909150819062000f0b565b90607f169062000197565b0151905038806200015e565b600080805260008051602062002c2f8339815191529350601f198516905b81811062000fb1575090846001959493921062000f97575b505050811b0160005562000174565b015160001960f88460031b161c1916905538808062000f88565b9293602060018192878601518155019501930162000f70565b6000805290915060008051602062002c2f833981519152601f840160051c8101916020851062001022575b90601f859493920160051c01905b81811062001012575062000145565b6000815584935060010162001003565b909150819062000ff5565b91607f16916200012f565b600080fd5b60408051919082016001600160401b03811183821017620007cd57604052565b60405190602082016001600160401b03811183821017620007cd57604052565b6040519190601f01601f191682016001600160401b03811183821017620007cd57604052565b51906001600160a01b03821682036200103857565b919080601f84011215620010385782516001600160401b038111620007cd57602090620010ee601f8201601f191683016200107d565b92818452828287010111620010385760005b8181106200111657508260009394955001015290565b85810183015184820184015282016200110056fe608060408181526004918236101561001657600080fd5b600090813560e01c90816306fdde0314610a25575080632eab9c81146109f35780634c69c00f146109425780634cecd88e1461077b57806354a470fc146105635780637284e416146104905780637397454d146103185780637c65d711146102dd578063a89ae4ba146102b4578063c63b02951461025d5763daec051f1461009d57600080fd5b3461025a578160031936011261025a57823567ffffffffffffffff8111610256576100cb9036908501610cf7565b916024359060ff821680920361025257845483526101756020946003865282852093336bffffffffffffffffffffffff60a01b8654161785556003850190815487600288015561ffff191617905561016f610158845161012a81610c3f565b600681526573797374656d60d01b898201528551906101538261014c81610b05565b0383610c8d565b6119a7565b91610167600187019384610dc4565b610153611200565b90610dc4565b8454916001830180841161023f5786556006548251633c38a5f560e01b8152966001600160a01b039291879189918516908290899082906101b9908b908301611220565b03925af18015610235579580978596976101fe575b5050907f9697c88a6be3b3ed5062f2dcbd719a10914832320686f14e24f7756210a6685e91541691519480a38152f35b908092939495503d831161022e575b6102178183610c8d565b8101031261022a579083929186386101ce565b8480fd5b503d61020d565b83513d87823e3d90fd5b634e487b7160e01b855260118752602485fd5b8280fd5b5080fd5b80fd5b509134610252576020366003190112610252578160809360ff9235815260036020522060018060a01b03815416926003600283015492015491815194855260208501528282169084015260081c1615156060820152f35b50903461025657816003193601126102565760065490516001600160a01b039091168152602090f35b5090346102565781600319360112610256578051610314916103028261014c81610b05565b51918291602083526020830190610cd2565b0390f35b5090346102565760603660031901126102565767ffffffffffffffff90833560243583811161022a5761034e9036908701610cf7565b9260443590811161022a576103669036908701610cf7565b60065490936001600160a01b03916103819083163314611720565b828652602094600386528487209160ff600384015460081c1661045b5792600261040e9695936103e26103d98b8d966103ca8d9a928c51906103c282610c71565b815282611a39565b15610453575b50610153611200565b60018301610dc4565b016103ed8154611788565b90556006541690878551809781958294633c38a5f560e01b84528301611220565b03925af190811561044a5750610422578280f35b813d8311610443575b6104358183610c8d565b8101031261025a5781808280f35b503d61042b565b513d85823e3d90fd5b90508d6103d0565b855162461bcd60e51b8152808a01889052600f60248201526e149d5b881a5cc8199a5b9a5cda1959608a1b6044820152606490fd5b509034610256578160031936011261025657805190826002546104b281610acb565b8085529160019180831690811561053b57506001146104de575b50505061030282610314940383610c8d565b9450600285527f405787fa12a823e0f2b7631cc41b3ba8828b3321ca811111fa75cd3aa3bb5ace5b8286106105235750505061030282602061031495820101946104cc565b80546020878701810191909152909501948101610506565b61031497508693506020925061030294915060ff191682840152151560051b820101946104cc565b50823461025657602090816003193601126102525735825260038152828220600190810180549094919261059682611969565b916105a384519384610c8d565b8083528183018097875282872087915b8383106106a7575050505082519481860192828752518093528386016005948085871b8901019895835b8685106105ea57898b038af35b909192939495969786819b603f198c82030187528a5182610612825189855289850190610cd2565b91015191838183039101528151808252838201908480828a1b850101940192875b878b84831061065a575050505050505081909a0195019501939695949291909997996105dd565b61069590899395979992949698601f19888203018a52836106858c5193845190808552840190610cd2565b9201519084818403910152610cd2565b970195019101918c9594939192610633565b968685829b9982979899516106bb81610c3f565b83516106d2816106cb818a610ba9565b0382610c8d565b815285850180548e6106e382611969565b926106f088519485610c8d565b828452815285812090888785015b8483106107275750505050506002945083820152815201920192019190989698959493956105b3565b89600293959799929496989a519061073e82610c3f565b805161074e816106cb818c610ba9565b825251610761816106cb81898c01610ba9565b8382015281520193019101908c959391888d9896946106fe565b509134610252576003196060368201126109235760243567ffffffffffffffff9384821161092757610160809383360301126109275780519283018381108682111761092f5781528184013585811161092b576107dd90853691850101610cf7565b8352602482013585811161092b576107fa90853691850101610cf7565b6020840152604482013585811161092b5761081a90853691850101610cf7565b9083015260648101358481116109275761083990843691840101610cf7565b60608301526084810135848116810361092757608083015260a48101358481116109275761086c90843691840101610cf7565b60a083015260c48101358481116109275761088c90843691840101610cf7565b60c083015260e4810135848111610927576108e4916108b361014492863691840101610cf7565b60e08501526108c56101048201610d53565b6101008501526108d86101248201610d53565b61012085015201610d53565b610140820152604435928311610923576109046109209336908401610cf7565b9161091a60018060a01b03600654163314611720565b356117ad565b80f35b8380fd5b8580fd5b8680fd5b634e487b7160e01b875260418552602487fd5b5091346102525760203660031901126102525780356001600160a01b03818116939184900361022a576005541633036109b0575050600680546001600160a01b031916821790557f107a9fafffb7ac890f780879e423760c9ffea8dcee8045681f40f542aede2cb88280a280f35b906020606492519162461bcd60e51b8352820152601760248201527f43616c6c6572206973206e6f7420746865206f776e65720000000000000000006044820152fd5b5091346102525760203660031901126102525760038260209460ff9335815282865220015460081c1690519015158152f35b90508234610252578260031936011261025257826001805491610a4783610acb565b8086529282811690811561053b5750600114610a6f5750505061030282610314940383610c8d565b94508085527fb10e2d527612073b26eecdfd717e6a320cf44b4afac2b0732d9fcbe2b7fa0cf65b828610610ab35750505061030282602061031495820101946104cc565b80546020878701810191909152909501948101610a96565b90600182811c92168015610afb575b6020831014610ae557565b634e487b7160e01b600052602260045260246000fd5b91607f1691610ada565b9060009160005490610b1682610acb565b80825291600190818116908115610b8c5750600114610b3457505050565b91929350600080527f290decd9548b62a8d60345a988386fc84ba6bc95484008f6362f93160ef3e563916000925b848410610b7457505060209250010190565b80546020858501810191909152909301928101610b62565b915050602093945060ff929192191683830152151560051b010190565b9060009291805491610bba83610acb565b918282526001938481169081600014610c1c5750600114610bdc575b50505050565b90919394506000526020928360002092846000945b838610610c08575050505001019038808080610bd6565b805485870183015294019385908201610bf1565b9294505050602093945060ff191683830152151560051b01019038808080610bd6565b6040810190811067ffffffffffffffff821117610c5b57604052565b634e487b7160e01b600052604160045260246000fd5b6020810190811067ffffffffffffffff821117610c5b57604052565b90601f8019910116810190811067ffffffffffffffff821117610c5b57604052565b60005b838110610cc25750506000910152565b8181015183820152602001610cb2565b90602091610ceb81518092818552858086019101610caf565b601f01601f1916010190565b81601f82011215610d4e5780359067ffffffffffffffff8211610c5b5760405192610d2c601f8401601f191660200185610c8d565b82845260208383010111610d4e57816000926020809301838601378301015290565b600080fd5b359063ffffffff82168203610d4e57565b818110610d6f575050565b60008155600101610d64565b610d858154610acb565b9081610d8f575050565b81601f60009311600114610da1575055565b908083918252610dc0601f60208420940160051c840160018501610d64565b5555565b90815490680100000000000000009081831015610c5b576001928381018086558110156111ea57600094855260209081862090851b0191805180519367ffffffffffffffff948581116111d657818891610e1f879454610acb565b948b601f96868882116111a0575b505050849086831160011461113e578c919083611133575b5050600019600383901b1c191690831b1781555b01920151805195861161111f5783908354878555808810611097575b50949294019387528287209187945b868610610e9657505050505050505050565b80518051805190848211610fed578b610eaf8854610acb565b8988821161106b575b505050879086831160011461100c578c919083611001575b5050600019600383901b1c1916908a1b1785555b8501518051858a0191848211610fed57928288928d95610f058e9654610acb565b898111610fb7575b508496898311600114610f515795966002969183610f46575b5050600019600383901b1c191690861b1790555b01940195019492610e84565b015190503880610f26565b9690601f198316848952868920985b818110610f9e57509187989184600299959410610f85575b505050811b019055610f3a565b015160001960f88460031b161c19169055388080610f78565b838301518a5597909801978f978d979384019301610f60565b610fde9084895286892060058c808701821c8301938a8810610fe4575b01901c0190610d64565b38610f0d565b93508293610fd4565b634e487b7160e01b8c52604160045260248cfd5b015190503880610ed0565b878d52888d209190601f1984168e5b818110611056575090848e959493921061103d575b505050811b018555610ee4565b015160001960f88460031b161c19169055388080611030565b828401518555938e0193928b01928b0161101b565b828a61108f945220600589808701821c8301938d8810610fe45701901c0190610d64565b8b3889610eb8565b9091506001600160ff1b03808216820361110b57871687036110f757838952848920859291891b810190888a1b015b8181106110d35750610e75565b6002919293506110e281610d7b565b6110ed8a8201610d7b565b01908592916110c6565b634e487b7160e01b89526011600452602489fd5b634e487b7160e01b8a52601160045260248afd5b634e487b7160e01b88526041600452602488fd5b015190503880610e45565b838d52858d209190601f1984168e5b8181106111885750908487959493921061116f575b505050811b018155610e59565b015160001960f88460031b161c19169055388080611162565b8284015185558b988f9890950194938401930161114d565b82866111c59452208880860160051c8201928987106111cd575b0160051c0190610d64565b8b3886610e2d565b925081926111ba565b634e487b7160e01b89526041600452602489fd5b634e487b7160e01b600052603260045260246000fd5b6040519061120d82610c3f565b60048252633ab9b2b960e11b6020830152565b90815260206040818301526101a08060408401526000926007549161124483610acb565b806101e0840152600193848116908160001461170157506001146116a3575b5060085460000b6060830152603f1990818387030160808401526000956009549061128d82610acb565b80825291868116908115611688575060011461162e575b5050600a5463ffffffff811660a0850152851c60000b60c0840152818387030160e0840152600095600b54906112d982610acb565b8082529186811690811561161357506001146115b9575b5050600c546101008401528286038201610120840152600d5460009661131582610acb565b8082529186811690811561159e5750600114611544575b5050600e54610140840152600f54610160840152828603820161018084015260105460009661135a82610acb565b8082529186811690811561152957506001146114cf575b505082860382019083015260115460009561138b82610acb565b808252918581169081156114b25750600114611454575b50506101c09082860301910152600092601254916113bf83610acb565b8083529281811690811561143757506001146113dd575b5050505090565b9293509060126000527fbb8a6a4669ba250d26cd7a459eca9d215f8307e33aebe50379bc5a3617ec344492846000945b83861061142357505050500101388080806113d6565b80548587018301529401938590820161140d565b60ff191685840152505090151560051b01019050388080806113d6565b859192965060116000527f31ecc21a745e3968a04e9570e4425bc18fa8019c68028196b546d1669c200c6890856000925b85841061149c57505001019490506101c0386113a2565b8054838501860152889490930192879101611485565b60ff1916828801525090151560051b01840194506101c0386113a2565b8692975060106000527f1b6847dc741a1b0cd08d278845f9d819d87b734759afb55fe2de5cb82a9ae67291866000935b828510611513575050500101943880611371565b80548585018701528995909401938891016114ff565b60ff1916828901525090151560051b01850195503880611371565b86929750600d6000527fd7b6990105719101dabeb77144f2a3385c8033acd3af97e9423a695e81ad1eb591866000935b82851061158857505050010194388061132c565b8054858501870152899590940193889101611574565b60ff1916828901525090151560051b0185019550388061132c565b86929750600b6000527f0175b7a638427703f0dbe7bb9bbf987a2551717b34e79f33b5b1008d1fa01db991866000935b8285106115fd5750505001019438806112f0565b80548585018701528995909401938891016115e9565b60ff1916828901525090151560051b018501955038806112f0565b8692975060096000527f6e1540171b6c0c960b71a7020d9f60077f6af931a8bbf590da0223dacf75c7af91866000935b8285106116725750505001019438806112a4565b805485850187015289959094019388910161165e565b60ff1916828901525090151560051b018501955038806112a4565b90945060076000527fa66cc928b5edb82af9bd49922954155ab7b0942694bea4ce44661d9a8736c68884846000925b8484106116eb5750505061020091508201019338611263565b80546102008588010152019101908486916116d2565b929650506102009160ff191682840152151560051b8201019338611263565b1561172757565b60405162461bcd60e51b815260206004820152601460248201527343616c6c6572206973206e6f74206f7261636c6560601b6044820152606490fd5b6040519061177082610c3f565b6009825268185cdcda5cdd185b9d60ba1b6020830152565b60001981146117975760010190565b634e487b7160e01b600052601160045260246000fd5b919091600090808252602090600382526040808420946117da82516117d181610c71565b86815282611a39565b15611930575060028501805495600381019687549060ff8216111561191b575084880190611817825185519061180f82610c71565b898252611a39565b156118ee575b50505080860161183c815183519061183482610c71565b878252611a39565b15611857575050835461ff0019166101001790935550505050565b83955084966118a292949395606060018060a01b03600654169351920151966118b4875198899687958694634b04236b60e01b86526004860152606060248601526064850190610cd2565b83810360031901604485015290610cd2565b03925af190811561044a57506118c957505050565b813d83116118e7575b6118dc8183610c8d565b8101031261025a5750565b503d6118d2565b60016119006119079351610153611763565b9101610dc4565b6119118154611788565b905538808061181d565b61ff0019166101001790965550505050505050565b9150506003945061194992506103d99150610153611763565b600281016119578154611788565b905501805461ff001916610100179055565b67ffffffffffffffff8111610c5b5760051b60200190565b6040519061198e82610c3f565b60606020838281520152565b8051156111ea5760200190565b906119b0611981565b50604051906119be82610c3f565b6001825260005b6020808210156119e757906020916119db611981565b908286010152016119c5565b505090611a33602091604051946119fd86610c3f565b8552611a0e8386019180835261199a565b5160405190611a1c82610c3f565b60048252631d195e1d60e21b85830152525161199a565b51015290565b9060405191602092611a67848281611a5a8183019687815193849201610caf565b8101038084520182610c8d565b51902091611a87604051918281611a5a8183019687815193849201610caf565b519020149056fea2646970667358221220edfb6c15c6e2579b87a547fab4e9e38c56932fe83cab5724304d462d7802bc4464736f6c63430008140033405787fa12a823e0f2b7631cc41b3ba8828b3321ca811111fa75cd3aa3bb5ace31ecc21a745e3968a04e9570e4425bc18fa8019c68028196b546d1669c200c68290decd9548b62a8d60345a988386fc84ba6bc95484008f6362f93160ef3e5631b6847dc741a1b0cd08d278845f9d819d87b734759afb55fe2de5cb82a9ae672",
  "linkReferences": {},
  "deployedLinkReferences": {}
}